{
  "_format": "hh-sol-artifact-1",
  "contractName": "DogNFT",
  "sourceName": "contracts/NFTDog.sol",
  "abi": [
    {
      "inputs": [],
      "stateMutability": "nonpayable",
      "type": "constructor"
    },
    {
      "anonymous": false,
      "inputs": [
        {
          "indexed": true,
          "internalType": "address",
          "name": "owner",
          "type": "address"
        },
        {
          "indexed": true,
          "internalType": "address",
          "name": "approved",
          "type": "address"
        },
        {
          "indexed": true,
          "internalType": "uint256",
          "name": "tokenId",
          "type": "uint256"
        }
      ],
      "name": "Approval",
      "type": "event"
    },
    {
      "anonymous": false,
      "inputs": [
        {
          "indexed": true,
          "internalType": "address",
          "name": "owner",
          "type": "address"
        },
        {
          "indexed": true,
          "internalType": "address",
          "name": "operator",
          "type": "address"
        },
        {
          "indexed": false,
          "internalType": "bool",
          "name": "approved",
          "type": "bool"
        }
      ],
      "name": "ApprovalForAll",
      "type": "event"
    },
    {
      "anonymous": false,
      "inputs": [
        {
          "indexed": false,
          "internalType": "address",
          "name": "_creator",
          "type": "address"
        },
        {
          "indexed": false,
          "internalType": "uint256",
          "name": "_mintingTime",
          "type": "uint256"
        },
        {
          "indexed": false,
          "internalType": "string",
          "name": "_URI",
          "type": "string"
        },
        {
          "indexed": false,
          "internalType": "uint256",
          "name": "_tokenId",
          "type": "uint256"
        }
      ],
      "name": "CreateCollectible",
      "type": "event"
    },
    {
      "anonymous": false,
      "inputs": [
        {
          "indexed": true,
          "internalType": "address",
          "name": "from",
          "type": "address"
        },
        {
          "indexed": true,
          "internalType": "address",
          "name": "to",
          "type": "address"
        },
        {
          "indexed": true,
          "internalType": "uint256",
          "name": "tokenId",
          "type": "uint256"
        }
      ],
      "name": "Transfer",
      "type": "event"
    },
    {
      "inputs": [
        {
          "internalType": "uint256",
          "name": "",
          "type": "uint256"
        }
      ],
      "name": "NFTList",
      "outputs": [
        {
          "internalType": "address",
          "name": "creator",
          "type": "address"
        },
        {
          "internalType": "uint256",
          "name": "mintingTime",
          "type": "uint256"
        },
        {
          "internalType": "string",
          "name": "TIER",
          "type": "string"
        },
        {
          "internalType": "string",
          "name": "BREED_COUNT",
          "type": "string"
        },
        {
          "internalType": "string",
          "name": "AGILITY",
          "type": "string"
        },
        {
          "internalType": "string",
          "name": "WEIGHT",
          "type": "string"
        },
        {
          "internalType": "string",
          "name": "STAMINA",
          "type": "string"
        },
        {
          "internalType": "string",
          "name": "HEALTH",
          "type": "string"
        },
        {
          "internalType": "string",
          "name": "LUCK",
          "type": "string"
        },
        {
          "internalType": "string",
          "name": "TOKENURI",
          "type": "string"
        }
      ],
      "stateMutability": "view",
      "type": "function"
    },
    {
      "inputs": [
        {
          "internalType": "address",
          "name": "to",
          "type": "address"
        },
        {
          "internalType": "uint256",
          "name": "tokenId",
          "type": "uint256"
        }
      ],
      "name": "approve",
      "outputs": [],
      "stateMutability": "nonpayable",
      "type": "function"
    },
    {
      "inputs": [
        {
          "internalType": "address",
          "name": "owner",
          "type": "address"
        }
      ],
      "name": "balanceOf",
      "outputs": [
        {
          "internalType": "uint256",
          "name": "",
          "type": "uint256"
        }
      ],
      "stateMutability": "view",
      "type": "function"
    },
    {
      "inputs": [
        {
          "internalType": "uint256",
          "name": "_tokenId",
          "type": "uint256"
        }
      ],
      "name": "burnNFT",
      "outputs": [],
      "stateMutability": "nonpayable",
      "type": "function"
    },
    {
      "inputs": [
        {
          "internalType": "string",
          "name": "_tokenURI",
          "type": "string"
        },
        {
          "internalType": "string",
          "name": "_TIER",
          "type": "string"
        },
        {
          "internalType": "string",
          "name": "_BREED_COUNT",
          "type": "string"
        },
        {
          "internalType": "string",
          "name": "_AGILITY",
          "type": "string"
        },
        {
          "internalType": "string",
          "name": "_WEIGHT",
          "type": "string"
        },
        {
          "internalType": "string",
          "name": "_STAMINA",
          "type": "string"
        },
        {
          "internalType": "string",
          "name": "_HEALTH",
          "type": "string"
        },
        {
          "internalType": "string",
          "name": "_LUCK",
          "type": "string"
        }
      ],
      "name": "createCollectible",
      "outputs": [
        {
          "internalType": "uint256",
          "name": "",
          "type": "uint256"
        }
      ],
      "stateMutability": "nonpayable",
      "type": "function"
    },
    {
      "inputs": [
        {
          "internalType": "uint256",
          "name": "tokenId",
          "type": "uint256"
        }
      ],
      "name": "getApproved",
      "outputs": [
        {
          "internalType": "address",
          "name": "",
          "type": "address"
        }
      ],
      "stateMutability": "view",
      "type": "function"
    },
    {
      "inputs": [
        {
          "internalType": "uint256",
          "name": "_id",
          "type": "uint256"
        }
      ],
      "name": "getCreator",
      "outputs": [
        {
          "internalType": "address",
          "name": "",
          "type": "address"
        }
      ],
      "stateMutability": "view",
      "type": "function"
    },
    {
      "inputs": [
        {
          "internalType": "address",
          "name": "owner",
          "type": "address"
        },
        {
          "internalType": "address",
          "name": "operator",
          "type": "address"
        }
      ],
      "name": "isApprovedForAll",
      "outputs": [
        {
          "internalType": "bool",
          "name": "",
          "type": "bool"
        }
      ],
      "stateMutability": "view",
      "type": "function"
    },
    {
      "inputs": [],
      "name": "name",
      "outputs": [
        {
          "internalType": "string",
          "name": "",
          "type": "string"
        }
      ],
      "stateMutability": "view",
      "type": "function"
    },
    {
      "inputs": [
        {
          "internalType": "uint256",
          "name": "tokenId",
          "type": "uint256"
        }
      ],
      "name": "ownerOf",
      "outputs": [
        {
          "internalType": "address",
          "name": "",
          "type": "address"
        }
      ],
      "stateMutability": "view",
      "type": "function"
    },
    {
      "inputs": [
        {
          "internalType": "address",
          "name": "from",
          "type": "address"
        },
        {
          "internalType": "address",
          "name": "to",
          "type": "address"
        },
        {
          "internalType": "uint256",
          "name": "tokenId",
          "type": "uint256"
        }
      ],
      "name": "safeTransferFrom",
      "outputs": [],
      "stateMutability": "nonpayable",
      "type": "function"
    },
    {
      "inputs": [
        {
          "internalType": "address",
          "name": "from",
          "type": "address"
        },
        {
          "internalType": "address",
          "name": "to",
          "type": "address"
        },
        {
          "internalType": "uint256",
          "name": "tokenId",
          "type": "uint256"
        },
        {
          "internalType": "bytes",
          "name": "_data",
          "type": "bytes"
        }
      ],
      "name": "safeTransferFrom",
      "outputs": [],
      "stateMutability": "nonpayable",
      "type": "function"
    },
    {
      "inputs": [
        {
          "internalType": "address",
          "name": "operator",
          "type": "address"
        },
        {
          "internalType": "bool",
          "name": "approved",
          "type": "bool"
        }
      ],
      "name": "setApprovalForAll",
      "outputs": [],
      "stateMutability": "nonpayable",
      "type": "function"
    },
    {
      "inputs": [
        {
          "internalType": "bytes4",
          "name": "interfaceId",
          "type": "bytes4"
        }
      ],
      "name": "supportsInterface",
      "outputs": [
        {
          "internalType": "bool",
          "name": "",
          "type": "bool"
        }
      ],
      "stateMutability": "view",
      "type": "function"
    },
    {
      "inputs": [],
      "name": "symbol",
      "outputs": [
        {
          "internalType": "string",
          "name": "",
          "type": "string"
        }
      ],
      "stateMutability": "view",
      "type": "function"
    },
    {
      "inputs": [],
      "name": "tokenCounter",
      "outputs": [
        {
          "internalType": "uint256",
          "name": "",
          "type": "uint256"
        }
      ],
      "stateMutability": "view",
      "type": "function"
    },
    {
      "inputs": [
        {
          "internalType": "uint256",
          "name": "tokenId",
          "type": "uint256"
        }
      ],
      "name": "tokenURI",
      "outputs": [
        {
          "internalType": "string",
          "name": "",
          "type": "string"
        }
      ],
      "stateMutability": "view",
      "type": "function"
    },
    {
      "inputs": [
        {
          "internalType": "address",
          "name": "from",
          "type": "address"
        },
        {
          "internalType": "address",
          "name": "to",
          "type": "address"
        },
        {
          "internalType": "uint256",
          "name": "tokenId",
          "type": "uint256"
        }
      ],
      "name": "transferFrom",
      "outputs": [],
      "stateMutability": "nonpayable",
      "type": "function"
    }
  ],
  "bytecode": "0x6080604052600980546001600160a01b03191690553480156200002157600080fd5b50604080518082018252600e81526d2237b39021b7b63632b1ba34b7b760911b602080830191825283518085019094526003845262444f4760e81b908401528151919291620000739160009162000097565b5080516200008990600190602084019062000097565b50506000600755506200017a565b828054620000a5906200013d565b90600052602060002090601f016020900481019282620000c9576000855562000114565b82601f10620000e457805160ff191683800117855562000114565b8280016001018555821562000114579182015b8281111562000114578251825591602001919060010190620000f7565b506200012292915062000126565b5090565b5b8082111562000122576000815560010162000127565b600181811c908216806200015257607f821691505b602082108114156200017457634e487b7160e01b600052602260045260246000fd5b50919050565b61201f806200018a6000396000f3fe608060405234801561001057600080fd5b50600436106101165760003560e01c806370a08231116100a2578063b88d4fde11610071578063b88d4fde1461025c578063c87b56dd1461026f578063d082e38114610282578063d48e638a1461028b578063e985e9c5146102b457600080fd5b806370a082311461020557806395d89b4114610218578063a22cb46514610220578063a7d18a491461023357600080fd5b8063095f83bf116100e9578063095f83bf1461019857806323b872dd146101b95780632890e0d7146101cc57806342842e0e146101df5780636352211e146101f257600080fd5b806301ffc9a71461011b57806306fdde0314610143578063081812fc14610158578063095ea7b314610183575b600080fd5b61012e610129366004611ae0565b6102f0565b60405190151581526020015b60405180910390f35b61014b610342565b60405161013a9190611e02565b61016b610166366004611c4f565b6103d4565b6040516001600160a01b03909116815260200161013a565b610196610191366004611ab7565b610461565b005b6101ab6101a6366004611b18565b610577565b60405190815260200161013a565b6101966101c73660046119c9565b61074e565b6101966101da366004611c4f565b61077f565b6101966101ed3660046119c9565b61079a565b61016b610200366004611c4f565b6107b5565b6101ab61021336600461197d565b61082c565b61014b6108b3565b61019661022e366004611a7d565b6108c2565b610246610241366004611c4f565b6108d1565b60405161013a9a99989796959493929190611cff565b61019661026a366004611a04565b610d68565b61014b61027d366004611c4f565b610da0565b6101ab60075481565b61016b610299366004611c4f565b6000908152600860205260409020546001600160a01b031690565b61012e6102c2366004611997565b6001600160a01b03918216600090815260056020908152604080832093909416825291909152205460ff1690565b60006001600160e01b031982166380ac58cd60e01b148061032157506001600160e01b03198216635b5e139f60e01b145b8061033c57506301ffc9a760e01b6001600160e01b03198316145b92915050565b60606000805461035190611f27565b80601f016020809104026020016040519081016040528092919081815260200182805461037d90611f27565b80156103ca5780601f1061039f576101008083540402835291602001916103ca565b820191906000526020600020905b8154815290600101906020018083116103ad57829003601f168201915b5050505050905090565b60006103df82610f17565b6104455760405162461bcd60e51b815260206004820152602c60248201527f4552433732313a20617070726f76656420717565727920666f72206e6f6e657860448201526b34b9ba32b73a103a37b5b2b760a11b60648201526084015b60405180910390fd5b506000908152600460205260409020546001600160a01b031690565b600061046c826107b5565b9050806001600160a01b0316836001600160a01b031614156104da5760405162461bcd60e51b815260206004820152602160248201527f4552433732313a20617070726f76616c20746f2063757272656e74206f776e656044820152603960f91b606482015260840161043c565b336001600160a01b03821614806104f657506104f681336102c2565b6105685760405162461bcd60e51b815260206004820152603860248201527f4552433732313a20617070726f76652063616c6c6572206973206e6f74206f7760448201527f6e6572206e6f7220617070726f76656420666f7220616c6c0000000000000000606482015260840161043c565b6105728383610f34565b505050565b6007546000906105873382610fa2565b610591818b610fbc565b60408051610140810182523381524260208083019182528284018d8152606084018d9052608084018c905260a084018b905260c084018a905260e08401899052610100840188905261012084018f905260008681526008835294909420835181546001600160a01b0319166001600160a01b039091161781559151600183015592518051929391926106299260028501920190611833565b5060608201518051610645916003840191602090910190611833565b5060808201518051610661916004840191602090910190611833565b5060a0820151805161067d916005840191602090910190611833565b5060c08201518051610699916006840191602090910190611833565b5060e082015180516106b5916007840191602090910190611833565b5061010082015180516106d2916008840191602090910190611833565b5061012082015180516106ef916009840191602090910190611833565b505060075461070091506001611eb8565b6007556040517f5a6dcf42a476966c2aa47ffbbdc550f1bed2ebc50ad17529b7dfc9ab9e9c938f9061073990339042908e908690611dca565b60405180910390a19998505050505050505050565b6107583382611047565b6107745760405162461bcd60e51b815260040161043c90611e67565b610572838383611130565b6009546107979033906001600160a01b03168361074e565b50565b61057283838360405180602001604052806000815250610d68565b6000818152600260205260408120546001600160a01b03168061033c5760405162461bcd60e51b815260206004820152602960248201527f4552433732313a206f776e657220717565727920666f72206e6f6e657869737460448201526832b73a103a37b5b2b760b91b606482015260840161043c565b60006001600160a01b0382166108975760405162461bcd60e51b815260206004820152602a60248201527f4552433732313a2062616c616e636520717565727920666f7220746865207a65604482015269726f206164647265737360b01b606482015260840161043c565b506001600160a01b031660009081526003602052604090205490565b60606001805461035190611f27565b6108cd3383836112cc565b5050565b6008602052600090815260409020805460018201546002830180546001600160a01b0390931693919261090390611f27565b80601f016020809104026020016040519081016040528092919081815260200182805461092f90611f27565b801561097c5780601f106109515761010080835404028352916020019161097c565b820191906000526020600020905b81548152906001019060200180831161095f57829003601f168201915b50505050509080600301805461099190611f27565b80601f01602080910402602001604051908101604052809291908181526020018280546109bd90611f27565b8015610a0a5780601f106109df57610100808354040283529160200191610a0a565b820191906000526020600020905b8154815290600101906020018083116109ed57829003601f168201915b505050505090806004018054610a1f90611f27565b80601f0160208091040260200160405190810160405280929190818152602001828054610a4b90611f27565b8015610a985780601f10610a6d57610100808354040283529160200191610a98565b820191906000526020600020905b815481529060010190602001808311610a7b57829003601f168201915b505050505090806005018054610aad90611f27565b80601f0160208091040260200160405190810160405280929190818152602001828054610ad990611f27565b8015610b265780601f10610afb57610100808354040283529160200191610b26565b820191906000526020600020905b815481529060010190602001808311610b0957829003601f168201915b505050505090806006018054610b3b90611f27565b80601f0160208091040260200160405190810160405280929190818152602001828054610b6790611f27565b8015610bb45780601f10610b8957610100808354040283529160200191610bb4565b820191906000526020600020905b815481529060010190602001808311610b9757829003601f168201915b505050505090806007018054610bc990611f27565b80601f0160208091040260200160405190810160405280929190818152602001828054610bf590611f27565b8015610c425780601f10610c1757610100808354040283529160200191610c42565b820191906000526020600020905b815481529060010190602001808311610c2557829003601f168201915b505050505090806008018054610c5790611f27565b80601f0160208091040260200160405190810160405280929190818152602001828054610c8390611f27565b8015610cd05780601f10610ca557610100808354040283529160200191610cd0565b820191906000526020600020905b815481529060010190602001808311610cb357829003601f168201915b505050505090806009018054610ce590611f27565b80601f0160208091040260200160405190810160405280929190818152602001828054610d1190611f27565b8015610d5e5780601f10610d3357610100808354040283529160200191610d5e565b820191906000526020600020905b815481529060010190602001808311610d4157829003601f168201915b505050505090508a565b610d723383611047565b610d8e5760405162461bcd60e51b815260040161043c90611e67565b610d9a8484848461139b565b50505050565b6060610dab82610f17565b610e115760405162461bcd60e51b815260206004820152603160248201527f45524337323155524953746f726167653a2055524920717565727920666f72206044820152703737b732bc34b9ba32b73a103a37b5b2b760791b606482015260840161043c565b60008281526006602052604081208054610e2a90611f27565b80601f0160208091040260200160405190810160405280929190818152602001828054610e5690611f27565b8015610ea35780601f10610e7857610100808354040283529160200191610ea3565b820191906000526020600020905b815481529060010190602001808311610e8657829003601f168201915b505050505090506000610ec160408051602081019091526000815290565b9050805160001415610ed4575092915050565b815115610f06578082604051602001610eee929190611c93565b60405160208183030381529060405292505050919050565b610f0f846113ce565b949350505050565b6000908152600260205260409020546001600160a01b0316151590565b600081815260046020526040902080546001600160a01b0319166001600160a01b0384169081179091558190610f69826107b5565b6001600160a01b03167f8c5be1e5ebec7d5bd14f71427d1e84f3dd0314c0f7b2291e5b200ac8c7c3b92560405160405180910390a45050565b6108cd8282604051806020016040528060008152506114a6565b610fc582610f17565b6110285760405162461bcd60e51b815260206004820152602e60248201527f45524337323155524953746f726167653a2055524920736574206f66206e6f6e60448201526d32bc34b9ba32b73a103a37b5b2b760911b606482015260840161043c565b6000828152600660209081526040909120825161057292840190611833565b600061105282610f17565b6110b35760405162461bcd60e51b815260206004820152602c60248201527f4552433732313a206f70657261746f7220717565727920666f72206e6f6e657860448201526b34b9ba32b73a103a37b5b2b760a11b606482015260840161043c565b60006110be836107b5565b9050806001600160a01b0316846001600160a01b0316148061110557506001600160a01b0380821660009081526005602090815260408083209388168352929052205460ff165b80610f0f5750836001600160a01b031661111e846103d4565b6001600160a01b031614949350505050565b826001600160a01b0316611143826107b5565b6001600160a01b0316146111a75760405162461bcd60e51b815260206004820152602560248201527f4552433732313a207472616e736665722066726f6d20696e636f72726563742060448201526437bbb732b960d91b606482015260840161043c565b6001600160a01b0382166112095760405162461bcd60e51b8152602060048201526024808201527f4552433732313a207472616e7366657220746f20746865207a65726f206164646044820152637265737360e01b606482015260840161043c565b611214600082610f34565b6001600160a01b038316600090815260036020526040812080546001929061123d908490611ee4565b90915550506001600160a01b038216600090815260036020526040812080546001929061126b908490611eb8565b909155505060008181526002602052604080822080546001600160a01b0319166001600160a01b0386811691821790925591518493918716917fddf252ad1be2c89b69c2b068fc378daa952ba7f163c4a11628f55a4df523b3ef91a4505050565b816001600160a01b0316836001600160a01b0316141561132e5760405162461bcd60e51b815260206004820152601960248201527f4552433732313a20617070726f766520746f2063616c6c657200000000000000604482015260640161043c565b6001600160a01b03838116600081815260056020908152604080832094871680845294825291829020805460ff191686151590811790915591519182527f17307eab39ab6107e8899845ad3d59bd9653f200f220920489ca2b5937696c31910160405180910390a3505050565b6113a6848484611130565b6113b2848484846114d9565b610d9a5760405162461bcd60e51b815260040161043c90611e15565b60606113d982610f17565b61143d5760405162461bcd60e51b815260206004820152602f60248201527f4552433732314d657461646174613a2055524920717565727920666f72206e6f60448201526e3732bc34b9ba32b73a103a37b5b2b760891b606482015260840161043c565b600061145460408051602081019091526000815290565b90506000815111611474576040518060200160405280600081525061149f565b8061147e846115e6565b60405160200161148f929190611c93565b6040516020818303038152906040525b9392505050565b6114b08383611700565b6114bd60008484846114d9565b6105725760405162461bcd60e51b815260040161043c90611e15565b60006001600160a01b0384163b156115db57604051630a85bd0160e11b81526001600160a01b0385169063150b7a029061151d903390899088908890600401611cc2565b602060405180830381600087803b15801561153757600080fd5b505af1925050508015611567575060408051601f3d908101601f1916820190925261156491810190611afc565b60015b6115c1573d808015611595576040519150601f19603f3d011682016040523d82523d6000602084013e61159a565b606091505b5080516115b95760405162461bcd60e51b815260040161043c90611e15565b805181602001fd5b6001600160e01b031916630a85bd0160e11b149050610f0f565b506001949350505050565b60608161160a5750506040805180820190915260018152600360fc1b602082015290565b8160005b8115611634578061161e81611f62565b915061162d9050600a83611ed0565b915061160e565b60008167ffffffffffffffff81111561165d57634e487b7160e01b600052604160045260246000fd5b6040519080825280601f01601f191660200182016040528015611687576020820181803683370190505b5090505b8415610f0f5761169c600183611ee4565b91506116a9600a86611f7d565b6116b4906030611eb8565b60f81b8183815181106116d757634e487b7160e01b600052603260045260246000fd5b60200101906001600160f81b031916908160001a9053506116f9600a86611ed0565b945061168b565b6001600160a01b0382166117565760405162461bcd60e51b815260206004820181905260248201527f4552433732313a206d696e7420746f20746865207a65726f2061646472657373604482015260640161043c565b61175f81610f17565b156117ac5760405162461bcd60e51b815260206004820152601c60248201527f4552433732313a20746f6b656e20616c7265616479206d696e74656400000000604482015260640161043c565b6001600160a01b03821660009081526003602052604081208054600192906117d5908490611eb8565b909155505060008181526002602052604080822080546001600160a01b0319166001600160a01b03861690811790915590518392907fddf252ad1be2c89b69c2b068fc378daa952ba7f163c4a11628f55a4df523b3ef908290a45050565b82805461183f90611f27565b90600052602060002090601f01602090048101928261186157600085556118a7565b82601f1061187a57805160ff19168380011785556118a7565b828001600101855582156118a7579182015b828111156118a757825182559160200191906001019061188c565b506118b39291506118b7565b5090565b5b808211156118b357600081556001016118b8565b600067ffffffffffffffff808411156118e7576118e7611fbd565b604051601f8501601f19908116603f0116810190828211818310171561190f5761190f611fbd565b8160405280935085815286868601111561192857600080fd5b858560208301376000602087830101525050509392505050565b80356001600160a01b038116811461195957600080fd5b919050565b600082601f83011261196e578081fd5b61149f838335602085016118cc565b60006020828403121561198e578081fd5b61149f82611942565b600080604083850312156119a9578081fd5b6119b283611942565b91506119c060208401611942565b90509250929050565b6000806000606084860312156119dd578081fd5b6119e684611942565b92506119f460208501611942565b9150604084013590509250925092565b60008060008060808587031215611a19578081fd5b611a2285611942565b9350611a3060208601611942565b925060408501359150606085013567ffffffffffffffff811115611a52578182fd5b8501601f81018713611a62578182fd5b611a71878235602084016118cc565b91505092959194509250565b60008060408385031215611a8f578182fd5b611a9883611942565b915060208301358015158114611aac578182fd5b809150509250929050565b60008060408385031215611ac9578182fd5b611ad283611942565b946020939093013593505050565b600060208284031215611af1578081fd5b813561149f81611fd3565b600060208284031215611b0d578081fd5b815161149f81611fd3565b600080600080600080600080610100898b031215611b34578384fd5b883567ffffffffffffffff80821115611b4b578586fd5b611b578c838d0161195e565b995060208b0135915080821115611b6c578586fd5b611b788c838d0161195e565b985060408b0135915080821115611b8d578586fd5b611b998c838d0161195e565b975060608b0135915080821115611bae578586fd5b611bba8c838d0161195e565b965060808b0135915080821115611bcf578586fd5b611bdb8c838d0161195e565b955060a08b0135915080821115611bf0578485fd5b611bfc8c838d0161195e565b945060c08b0135915080821115611c11578384fd5b611c1d8c838d0161195e565b935060e08b0135915080821115611c32578283fd5b50611c3f8b828c0161195e565b9150509295985092959890939650565b600060208284031215611c60578081fd5b5035919050565b60008151808452611c7f816020860160208601611efb565b601f01601f19169290920160200192915050565b60008351611ca5818460208801611efb565b835190830190611cb9818360208801611efb565b01949350505050565b6001600160a01b0385811682528416602082015260408101839052608060608201819052600090611cf590830184611c67565b9695505050505050565b6001600160a01b038b168152602081018a905261014060408201819052600090611d2b8382018c611c67565b90508281036060840152611d3f818b611c67565b90508281036080840152611d53818a611c67565b905082810360a0840152611d678189611c67565b905082810360c0840152611d7b8188611c67565b905082810360e0840152611d8f8187611c67565b9050828103610100840152611da48186611c67565b9050828103610120840152611db98185611c67565b9d9c50505050505050505050505050565b60018060a01b0385168152836020820152608060408201526000611df16080830185611c67565b905082606083015295945050505050565b60208152600061149f6020830184611c67565b60208082526032908201527f4552433732313a207472616e7366657220746f206e6f6e20455243373231526560408201527131b2b4bb32b91034b6b83632b6b2b73a32b960711b606082015260800190565b60208082526031908201527f4552433732313a207472616e736665722063616c6c6572206973206e6f74206f6040820152701ddb995c881b9bdc88185c1c1c9bdd9959607a1b606082015260800190565b60008219821115611ecb57611ecb611f91565b500190565b600082611edf57611edf611fa7565b500490565b600082821015611ef657611ef6611f91565b500390565b60005b83811015611f16578181015183820152602001611efe565b83811115610d9a5750506000910152565b600181811c90821680611f3b57607f821691505b60208210811415611f5c57634e487b7160e01b600052602260045260246000fd5b50919050565b6000600019821415611f7657611f76611f91565b5060010190565b600082611f8c57611f8c611fa7565b500690565b634e487b7160e01b600052601160045260246000fd5b634e487b7160e01b600052601260045260246000fd5b634e487b7160e01b600052604160045260246000fd5b6001600160e01b03198116811461079757600080fdfea2646970667358221220ab78b13fcb530e871d6dd191ba0fd5f419c2814fffc78066dc7afe8bee1fe59b64736f6c63430008040033",
  "linkReferences": {},
  "deployedLinkReferences": {}
}