{
  "_format": "hh-sol-artifact-1",
  "contractName": "NFTMarket",
  "sourceName": "contracts/NFTMarket.sol",
  "abi": [
    {
      "inputs": [
        {
          "internalType": "uint256",
          "name": "_marketPercentage",
          "type": "uint256"
        },
        {
          "internalType": "uint256",
          "name": "_royalty_fee",
          "type": "uint256"
        }
      ],
      "stateMutability": "nonpayable",
      "type": "constructor"
    },
    {
      "anonymous": false,
      "inputs": [
        {
          "indexed": true,
          "internalType": "uint256",
          "name": "id",
          "type": "uint256"
        },
        {
          "indexed": true,
          "internalType": "address",
          "name": "creator",
          "type": "address"
        },
        {
          "indexed": false,
          "internalType": "uint256",
          "name": "tokenID",
          "type": "uint256"
        },
        {
          "indexed": false,
          "internalType": "address",
          "name": "NFTaddress",
          "type": "address"
        },
        {
          "indexed": false,
          "internalType": "uint256",
          "name": "price",
          "type": "uint256"
        },
        {
          "indexed": true,
          "internalType": "address",
          "name": "owner",
          "type": "address"
        },
        {
          "indexed": false,
          "internalType": "uint256",
          "name": "itemId",
          "type": "uint256"
        }
      ],
      "name": "AddMarketItem",
      "type": "event"
    },
    {
      "anonymous": false,
      "inputs": [
        {
          "indexed": false,
          "internalType": "uint256",
          "name": "_itemId",
          "type": "uint256"
        },
        {
          "indexed": false,
          "internalType": "address",
          "name": "newOwner",
          "type": "address"
        },
        {
          "indexed": false,
          "internalType": "address",
          "name": "oldOwner",
          "type": "address"
        }
      ],
      "name": "ChangeOwnership",
      "type": "event"
    },
    {
      "anonymous": false,
      "inputs": [
        {
          "indexed": true,
          "internalType": "uint256",
          "name": "tokenID",
          "type": "uint256"
        },
        {
          "indexed": true,
          "internalType": "address",
          "name": "buyer",
          "type": "address"
        },
        {
          "indexed": false,
          "internalType": "uint256",
          "name": "price",
          "type": "uint256"
        }
      ],
      "name": "MarketItemSale",
      "type": "event"
    },
    {
      "inputs": [
        {
          "internalType": "uint256",
          "name": "_tokenID",
          "type": "uint256"
        },
        {
          "internalType": "address",
          "name": "_NFTaddress",
          "type": "address"
        },
        {
          "internalType": "uint256",
          "name": "_price",
          "type": "uint256"
        }
      ],
      "name": "addMarketItem",
      "outputs": [
        {
          "internalType": "uint256",
          "name": "",
          "type": "uint256"
        }
      ],
      "stateMutability": "nonpayable",
      "type": "function"
    },
    {
      "inputs": [
        {
          "internalType": "uint256",
          "name": "newPercent",
          "type": "uint256"
        }
      ],
      "name": "changeOwnerPercentage",
      "outputs": [],
      "stateMutability": "nonpayable",
      "type": "function"
    },
    {
      "inputs": [
        {
          "internalType": "uint256",
          "name": "newPercent",
          "type": "uint256"
        }
      ],
      "name": "changeRoyaltyFee",
      "outputs": [],
      "stateMutability": "nonpayable",
      "type": "function"
    },
    {
      "inputs": [
        {
          "internalType": "uint256",
          "name": "_itemId",
          "type": "uint256"
        },
        {
          "internalType": "address",
          "name": "_to",
          "type": "address"
        }
      ],
      "name": "giftNFT",
      "outputs": [],
      "stateMutability": "nonpayable",
      "type": "function"
    },
    {
      "inputs": [],
      "name": "marketItemCounter",
      "outputs": [
        {
          "internalType": "uint256",
          "name": "_value",
          "type": "uint256"
        }
      ],
      "stateMutability": "view",
      "type": "function"
    },
    {
      "inputs": [
        {
          "internalType": "uint256",
          "name": "",
          "type": "uint256"
        }
      ],
      "name": "marketItemsList",
      "outputs": [
        {
          "internalType": "uint256",
          "name": "id",
          "type": "uint256"
        },
        {
          "internalType": "address",
          "name": "creator",
          "type": "address"
        },
        {
          "internalType": "uint256",
          "name": "tokenID",
          "type": "uint256"
        },
        {
          "internalType": "address",
          "name": "NFTaddress",
          "type": "address"
        },
        {
          "internalType": "uint256",
          "name": "price",
          "type": "uint256"
        },
        {
          "internalType": "address",
          "name": "owner",
          "type": "address"
        },
        {
          "internalType": "enum NFTMarket.status",
          "name": "currentStatus",
          "type": "uint8"
        }
      ],
      "stateMutability": "view",
      "type": "function"
    },
    {
      "inputs": [],
      "name": "marketOwner",
      "outputs": [
        {
          "internalType": "address",
          "name": "",
          "type": "address"
        }
      ],
      "stateMutability": "view",
      "type": "function"
    },
    {
      "inputs": [],
      "name": "marketPercentage",
      "outputs": [
        {
          "internalType": "uint256",
          "name": "",
          "type": "uint256"
        }
      ],
      "stateMutability": "view",
      "type": "function"
    },
    {
      "inputs": [],
      "name": "royalty_fee",
      "outputs": [
        {
          "internalType": "uint256",
          "name": "",
          "type": "uint256"
        }
      ],
      "stateMutability": "view",
      "type": "function"
    },
    {
      "inputs": [
        {
          "internalType": "uint256",
          "name": "_itemId",
          "type": "uint256"
        }
      ],
      "name": "sellMarketItem",
      "outputs": [],
      "stateMutability": "payable",
      "type": "function"
    }
  ],
  "bytecode": "0x608060405234801561001057600080fd5b50604051610d1c380380610d1c83398101604081905261002f9161004f565b600080546001600160a01b03191633179055600191909155600555610072565b60008060408385031215610061578182fd5b505080516020909101519092909150565b610c9b806100816000396000f3fe6080604052600436106100915760003560e01c806358c1d24a1161005957806358c1d24a146101b457806391ddfe0a146101d4578063c0a8f01e146101e7578063c84e4780146101fd578063e00f3dc71461021d57600080fd5b80630ad4b222146100965780631172a7041461011f5780632a1be3251461014157806340924a031461016557806347d90b5c1461017c575b600080fd5b3480156100a257600080fd5b506101036100b1366004610aff565b600260208190526000918252604090912080546001820154928201546003830154600484015460059094015492946001600160a01b03908116949293918116929190811690600160a01b900460ff1687565b6040516101169796959493929190610b7d565b60405180910390f35b34801561012b57600080fd5b5061013f61013a366004610aff565b61023d565b005b34801561014d57600080fd5b5061015760015481565b604051908152602001610116565b34801561017157600080fd5b506003546101579081565b34801561018857600080fd5b5060005461019c906001600160a01b031681565b6040516001600160a01b039091168152602001610116565b3480156101c057600080fd5b5061013f6101cf366004610aff565b610290565b61013f6101e2366004610aff565b6102de565b3480156101f357600080fd5b5061015760055481565b34801561020957600080fd5b50610157610218366004610b46565b610603565b34801561022957600080fd5b5061013f610238366004610b17565b610934565b6000546001600160a01b0316321461028b5760405162461bcd60e51b815260206004820152600c60248201526b2737ba1030b71037bbb732b960a11b60448201526064015b60405180910390fd5b600555565b6000546001600160a01b031632146102d95760405162461bcd60e51b815260206004820152600c60248201526b2737ba1030b71037bbb732b960a11b6044820152606401610282565b600155565b60008181526002602052604090206004015434146103375760405162461bcd60e51b8152602060048201526016602482015275139bdd08115b9bdd59da08105b5bdd5b9d0814d95b9d60521b6044820152606401610282565b6000805482825260026020526040909120600501546001600160a01b03908116911614156103b357600081815260026020526040808220600581015460049091015491516001600160a01b039091169282156108fc02929190818181858888f193505050501580156103ad573d6000803e3d6000fd5b50610513565b60015460008281526002602052604081206004015490916103d391610c01565b905060006103e2606483610be1565b600554600085815260026020526040812060040154929350916104059190610c01565b90506000610414606483610be1565b600086815260026020526040812060040154919250908290610437908690610c20565b6104419190610c20565b600080546040519293506001600160a01b03169186156108fc0291879190818181858888f1935050505015801561047c573d6000803e3d6000fd5b506000868152600260205260408082206001015490516001600160a01b039091169184156108fc02918591818181858888f193505050501580156104c4573d6000803e3d6000fd5b506000868152600260205260408082206005015490516001600160a01b039091169183156108fc02918491818181858888f1935050505015801561050c573d6000803e3d6000fd5b5050505050505b6000818152600260208190526040909120908101546003820154600590920154610549926001600160a01b039081169116610a30565b600081815260026020908152604080832060050180546001600160a81b0319163360ff60a01b19811691909117600160a01b1790915592548151858152928301939093526001600160a01b039092168183015290517f881e808ab8ebb521bbef2d6701c91dec33f3034c3e251f144e7759540e0fbf86916060908290030190a1604051348152339082907f6f554d0077c66ef5af01ecc898c1271046d516b344b73ddbf031328c799b12979060200160405180910390a350565b6040516331a9108f60e11b81526004810184905260009033906001600160a01b03851690636352211e9060240160206040518083038186803b15801561064857600080fd5b505afa15801561065c573d6000803e3d6000fd5b505050506040513d601f19601f820116820180604052508101906106809190610adc565b6001600160a01b0316146106d65760405162461bcd60e51b815260206004820152601d60248201527f53656e646572206973206e6f7420746865204e4654206f776e657221210000006044820152606401610282565b6001600160a01b0383166000908152600460205260409020543390610712576001600160a01b0384166000908152600460205260409020600190555b600061071d60035490565b604051636a4731c560e11b8152600481018890529091506000906001600160a01b0387169063d48e638a9060240160206040518083038186803b15801561076357600080fd5b505afa158015610777573d6000803e3d6000fd5b505050506040513d601f19601f8201168201806040525081019061079b9190610adc565b90506040518060e00160405280838152602001826001600160a01b03168152602001888152602001876001600160a01b03168152602001868152602001846001600160a01b031681526020016000600281111561080857634e487b7160e01b600052602160045260246000fd5b905260008381526002602081815260409283902084518155908401516001820180546001600160a01b03199081166001600160a01b03938416179091559385015182840155606085015160038301805486169183169190911790556080850151600483015560a085015160058301805495861691909216908117825560c08601519294929391926001600160a81b0319161790600160a01b9084908111156108c057634e487b7160e01b600052602160045260246000fd5b02179055505060038054600101905550604080518881526001600160a01b038881166020830152918101879052606081018490528185169183169089907f7e82eb98673e6848c4abc7e69dae2291b8be4bf3eb6f026b50515964b72914a09060800160405180910390a45095945050505050565b6000828152600260205260409020600501546001600160a01b0316331461099d5760405162461bcd60e51b815260206004820152601b60248201527f6f6e6c79206f776e65722063616e207472616e73666572206e667400000000006044820152606401610282565b60008281526002602081905260409091206005810180546001600160a01b0319166001600160a01b03858116918217909255928201546003909201546109e593911690610a30565b604080518381526001600160a01b0383166020820152338183015290517f881e808ab8ebb521bbef2d6701c91dec33f3034c3e251f144e7759540e0fbf869181900360600190a15050565b6040516323b872dd60e01b81526001600160a01b038281166004830152326024830152604482018590528316906323b872dd90606401600060405180830381600087803b158015610a8057600080fd5b505af1158015610a94573d6000803e3d6000fd5b505060408051868152326020820152308183015290517f881e808ab8ebb521bbef2d6701c91dec33f3034c3e251f144e7759540e0fbf869350908190036060019150a1505050565b600060208284031215610aed578081fd5b8151610af881610c4d565b9392505050565b600060208284031215610b10578081fd5b5035919050565b60008060408385031215610b29578081fd5b823591506020830135610b3b81610c4d565b809150509250929050565b600080600060608486031215610b5a578081fd5b833592506020840135610b6c81610c4d565b929592945050506040919091013590565b8781526001600160a01b03878116602083015260408201879052858116606083015260808201859052831660a082015260e0810160038310610bcf57634e487b7160e01b600052602160045260246000fd5b8260c083015298975050505050505050565b600082610bfc57634e487b7160e01b81526012600452602481fd5b500490565b6000816000190483118215151615610c1b57610c1b610c37565b500290565b600082821015610c3257610c32610c37565b500390565b634e487b7160e01b600052601160045260246000fd5b6001600160a01b0381168114610c6257600080fd5b5056fea2646970667358221220cd2efe39439acb974ae0ba83fde80d8d6dff08dc3569e8a4cfe2f20571afafc364736f6c63430008040033",
  "linkReferences": {},
  "deployedLinkReferences": {}
}